:03000000020800F3
:0C080000787FE4F6D8FD758157020847A8
:080A6C007FBFDFEFF7FBFDFE89
:040A74000253001415
:100A2400E4FDFCC3ED9FEC9E5015E4FBFA0BBB0008
:0F0A3400010AEB64794A70F50DBD00010C80E4F6
:010A43002290
:100A0000C2B6C2B5E4FEEF5480C4131313540124DC
:100A1000FF92B4EF25E0FFD2B6C2B60EBE08E7D211
:030A2000B5C2B5A7
:010A230022B0
:100A44007F407808E4F608DFFC75081C75091B75FF
:0B0A5400480A754903755203755502EE
:010A5F002274
:10097D00AF5220B208E55264016002E4FF20B306D5
:10098D00E55260027F0120B008E552640360027FEA
:10099D000220B108E552640260027F03EF655260E8
:0509AD00048F498F5288
:0109B2002222
:1008F000AF55EFD39400400F74072FF8E6FE74084D
:100900002FF8A6061F80EBE549146010146016143A
:1009100060202403702DE50824388004E5082408AD
:10092000543FF50822E508540770047407800D153C
:100930000822E5085407FFBF070774F92508F508E2
:0309400022050885
:010943002291
:1009DB007F01E5482411543FF548E4FEEEC39555DD
:1009EB00500F74082EF8E6B54804E4FF80030E8020
:0409FB00EBEF60DCE2
:0109FF0022D5
:1009B3007F01EFC39555500E74082FF8E6B5080371
:1009C300020A440F80ECE508B5480CE555C3943F93
:0709D300500205551209DB7B
:0109DA0022FA
:10088C007E08784AE4F608DEFCE4FEEEC39555508B
:10089C002C74082EF8E6FD131313541FF557ED5462
:1008AC0007FF744A2557F8C000E6FDA80774010835
:1008BC008002C333D8FC4DD000F60E80CEE5481331
:1008CC001313541FF557E5485407FF744A2557F87E
:1008DC00C000E6FEA8077401088002C333D8FC4EA2
:0308EC00D000F643
:0108EF0022E6
:0C0A600012097D1208F01209B302088C84
:10094400120A44120A60E4F556C3E5569554E49538
:100954005350F0E4F9E4FF120A00E9900A6C93F5AD
:1009640080744A29F8E6FF120A007F027E00120A08
:090974002409B908E0055680D001
:10080C00020944E493A3F8E493A34003F68001F2B5
:10081C0008DFF48029E493A3F85407240CC8C333ED
:10082C00C4540F4420C8834004F456800146F6DFBC
:10083C00E4800B0102040810204080900A74E47ECE
:10084C00019360BCA3FF543F30E509541FFEE493B1
:10085C00A360010ECF54C025E060A840B8E493A378
:10086C00FAE493A3F8E493A3C8C582C8CAC583CAA3
:10087C00F0A3C8C582C8CAC583CADFE9DEE780BE5B
:010A7800007D
:00000001FF
